{
  "contractName": "Etherand",
  "abi": [
    {
      "constant": false,
      "inputs": [
        {
          "name": "_to",
          "type": "address"
        },
        {
          "name": "_gas",
          "type": "uint256"
        },
        {
          "name": "_code",
          "type": "bytes"
        }
      ],
      "name": "callFor",
      "outputs": [
        {
          "name": "_result",
          "type": "bool"
        }
      ],
      "payable": true,
      "stateMutability": "payable",
      "type": "function",
      "signature": "0x12ce73dc"
    },
    {
      "constant": true,
      "inputs": [],
      "name": "entropyHeight",
      "outputs": [
        {
          "name": "",
          "type": "uint256"
        }
      ],
      "payable": false,
      "stateMutability": "view",
      "type": "function",
      "signature": "0x1edd8d2f"
    },
    {
      "constant": false,
      "inputs": [],
      "name": "withdraw",
      "outputs": [],
      "payable": false,
      "stateMutability": "nonpayable",
      "type": "function",
      "signature": "0x3ccfd60b"
    },
    {
      "constant": true,
      "inputs": [
        {
          "name": "_id",
          "type": "uint256"
        }
      ],
      "name": "getRequestedEntropy",
      "outputs": [
        {
          "name": "_valid",
          "type": "bool"
        },
        {
          "name": "_number",
          "type": "uint256"
        },
        {
          "name": "_entropy",
          "type": "uint256"
        }
      ],
      "payable": false,
      "stateMutability": "view",
      "type": "function",
      "signature": "0x3ddbfb88"
    },
    {
      "constant": false,
      "inputs": [
        {
          "name": "_from",
          "type": "address"
        },
        {
          "name": "_blockCount",
          "type": "uint256"
        },
        {
          "name": "_entropyCount",
          "type": "uint256"
        }
      ],
      "name": "requestEntropy",
      "outputs": [
        {
          "name": "_id",
          "type": "uint256"
        }
      ],
      "payable": true,
      "stateMutability": "payable",
      "type": "function",
      "signature": "0x405abbab"
    },
    {
      "constant": true,
      "inputs": [],
      "name": "entropy",
      "outputs": [
        {
          "name": "",
          "type": "uint256"
        }
      ],
      "payable": false,
      "stateMutability": "view",
      "type": "function",
      "signature": "0x47ce07cc"
    },
    {
      "constant": true,
      "inputs": [
        {
          "name": "",
          "type": "uint256"
        }
      ],
      "name": "requests",
      "outputs": [
        {
          "name": "id",
          "type": "uint256"
        },
        {
          "name": "from",
          "type": "address"
        },
        {
          "name": "fee",
          "type": "uint256"
        },
        {
          "name": "requiredBlockHeight",
          "type": "uint256"
        },
        {
          "name": "requiredEntropyHeight",
          "type": "uint256"
        },
        {
          "name": "number",
          "type": "uint256"
        }
      ],
      "payable": false,
      "stateMutability": "view",
      "type": "function",
      "signature": "0x81d12c58"
    },
    {
      "constant": false,
      "inputs": [
        {
          "name": "_committee",
          "type": "address"
        }
      ],
      "name": "setCommittee",
      "outputs": [],
      "payable": false,
      "stateMutability": "nonpayable",
      "type": "function",
      "signature": "0xbddae40e"
    },
    {
      "constant": true,
      "inputs": [],
      "name": "committee",
      "outputs": [
        {
          "name": "",
          "type": "address"
        }
      ],
      "payable": false,
      "stateMutability": "view",
      "type": "function",
      "signature": "0xd864e740"
    },
    {
      "constant": false,
      "inputs": [
        {
          "name": "_id",
          "type": "uint256"
        },
        {
          "name": "_number",
          "type": "uint256"
        }
      ],
      "name": "respondToRequest",
      "outputs": [],
      "payable": false,
      "stateMutability": "nonpayable",
      "type": "function",
      "signature": "0xeace88d3"
    },
    {
      "constant": true,
      "inputs": [],
      "name": "blockHeight",
      "outputs": [
        {
          "name": "",
          "type": "uint256"
        }
      ],
      "payable": false,
      "stateMutability": "view",
      "type": "function",
      "signature": "0xf44ff712"
    },
    {
      "constant": true,
      "inputs": [
        {
          "name": "",
          "type": "address"
        }
      ],
      "name": "fees",
      "outputs": [
        {
          "name": "",
          "type": "uint256"
        }
      ],
      "payable": false,
      "stateMutability": "view",
      "type": "function",
      "signature": "0xfaaebd21"
    },
    {
      "inputs": [],
      "payable": false,
      "stateMutability": "nonpayable",
      "type": "constructor",
      "signature": "constructor"
    },
    {
      "anonymous": false,
      "inputs": [
        {
          "indexed": true,
          "name": "id",
          "type": "uint256"
        },
        {
          "indexed": true,
          "name": "from",
          "type": "address"
        },
        {
          "indexed": false,
          "name": "fee",
          "type": "uint256"
        },
        {
          "indexed": false,
          "name": "blockCount",
          "type": "uint256"
        },
        {
          "indexed": false,
          "name": "entropyCount",
          "type": "uint256"
        }
      ],
      "name": "RequestEntropy",
      "type": "event",
      "signature": "0xcc591613c42f80ed72fd358d455360926057de8e9b0ad9fede4f8d7d4bc921a0"
    },
    {
      "anonymous": false,
      "inputs": [
        {
          "indexed": true,
          "name": "id",
          "type": "uint256"
        },
        {
          "indexed": true,
          "name": "from",
          "type": "address"
        },
        {
          "indexed": false,
          "name": "number",
          "type": "uint256"
        }
      ],
      "name": "IncreaseEntropy",
      "type": "event",
      "signature": "0xfe29d6b3d4eb73a64f8ee506d7bb327cd7f6bc22d698d0a673442ecf36b20502"
    },
    {
      "anonymous": false,
      "inputs": [
        {
          "indexed": false,
          "name": "committee",
          "type": "address"
        }
      ],
      "name": "SetCommittee",
      "type": "event",
      "signature": "0x22a3400c609e52ea781540daed872a0ff7b79a428f634be082c24c2faf068463"
    },
    {
      "constant": false,
      "inputs": [
        {
          "name": "_number",
          "type": "uint256"
        }
      ],
      "name": "getEntropy",
      "outputs": [
        {
          "name": "",
          "type": "uint256"
        }
      ],
      "payable": false,
      "stateMutability": "nonpayable",
      "type": "function",
      "signature": "0x74e6a469"
    },
    {
      "constant": true,
      "inputs": [],
      "name": "getUnsafeEntropy",
      "outputs": [
        {
          "name": "",
          "type": "uint256"
        }
      ],
      "payable": false,
      "stateMutability": "view",
      "type": "function",
      "signature": "0x8b4fb50d"
    },
    {
      "constant": false,
      "inputs": [
        {
          "name": "_number",
          "type": "uint256"
        }
      ],
      "name": "increaseEntropy",
      "outputs": [],
      "payable": false,
      "stateMutability": "nonpayable",
      "type": "function",
      "signature": "0x253ade97"
    }
  ],
  "bytecode": "0x608060405234801561001057600080fd5b50336000806101000a81548173ffffffffffffffffffffffffffffffffffffffff021916908373ffffffffffffffffffffffffffffffffffffffff160217905550610f69806100606000396000f3fe6080604052600436106100db576000357c0100000000000000000000000000000000000000000000000000000000900463ffffffff16806312ce73dc146100e05780631edd8d2f1461019b578063253ade97146101c65780633ccfd60b146102015780633ddbfb8814610218578063405abbab1461027957806347ce07cc146102e557806374e6a4691461031057806381d12c581461035f5780638b4fb50d146103fd578063bddae40e14610428578063d864e74014610479578063eace88d3146104d0578063f44ff71214610515578063faaebd2114610540575b600080fd5b610181600480360360608110156100f657600080fd5b81019080803573ffffffffffffffffffffffffffffffffffffffff169060200190929190803590602001909291908035906020019064010000000081111561013d57600080fd5b82018360208201111561014f57600080fd5b8035906020019184600183028401116401000000008311171561017157600080fd5b90919293919293905050506105a5565b604051808215151515815260200191505060405180910390f35b3480156101a757600080fd5b506101b0610684565b6040518082815260200191505060405180910390f35b3480156101d257600080fd5b506101ff600480360360208110156101e957600080fd5b810190808035906020019092919050505061068a565b005b34801561020d57600080fd5b506102166106e6565b005b34801561022457600080fd5b506102516004803603602081101561023b57600080fd5b81019080803590602001909291905050506107b7565b6040518084151515158152602001838152602001828152602001935050505060405180910390f35b6102cf6004803603606081101561028f57600080fd5b81019080803573ffffffffffffffffffffffffffffffffffffffff16906020019092919080359060200190929190803590602001909291905050506108b7565b6040518082815260200191505060405180910390f35b3480156102f157600080fd5b506102fa610a55565b6040518082815260200191505060405180910390f35b34801561031c57600080fd5b506103496004803603602081101561033357600080fd5b8101908080359060200190929190505050610a5b565b6040518082815260200191505060405180910390f35b34801561036b57600080fd5b506103986004803603602081101561038257600080fd5b8101908080359060200190929190505050610a70565b604051808781526020018673ffffffffffffffffffffffffffffffffffffffff1673ffffffffffffffffffffffffffffffffffffffff168152602001858152602001848152602001838152602001828152602001965050505050505060405180910390f35b34801561040957600080fd5b50610412610adb565b6040518082815260200191505060405180910390f35b34801561043457600080fd5b506104776004803603602081101561044b57600080fd5b81019080803573ffffffffffffffffffffffffffffffffffffffff169060200190929190505050610aef565b005b34801561048557600080fd5b5061048e610c2c565b604051808273ffffffffffffffffffffffffffffffffffffffff1673ffffffffffffffffffffffffffffffffffffffff16815260200191505060405180910390f35b3480156104dc57600080fd5b50610513600480360360408110156104f357600080fd5b810190808035906020019092919080359060200190929190505050610c51565b005b34801561052157600080fd5b5061052a610df6565b6040518082815260200191505060405180910390f35b34801561054c57600080fd5b5061058f6004803603602081101561056357600080fd5b81019080803573ffffffffffffffffffffffffffffffffffffffff169060200190929190505050610dfc565b6040518082815260200191505060405180910390f35b60008060009054906101000a900473ffffffffffffffffffffffffffffffffffffffff1673ffffffffffffffffffffffffffffffffffffffff163373ffffffffffffffffffffffffffffffffffffffff1614151561060257600080fd5b8473ffffffffffffffffffffffffffffffffffffffff163485908585604051808383808284378083019250505092505050600060405180830381858888f193505050503d8060008114610671576040519150601f19603f3d011682016040523d82523d6000602084013e610676565b606091505b505080915050949350505050565b60045481565b61069381610e14565b3373ffffffffffffffffffffffffffffffffffffffff1660007ffe29d6b3d4eb73a64f8ee506d7bb327cd7f6bc22d698d0a673442ecf36b20502836040518082815260200191505060405180910390a350565b6000600260003373ffffffffffffffffffffffffffffffffffffffff1673ffffffffffffffffffffffffffffffffffffffff168152602001908152602001600020549050600260003373ffffffffffffffffffffffffffffffffffffffff1673ffffffffffffffffffffffffffffffffffffffff168152602001908152602001600020600090553373ffffffffffffffffffffffffffffffffffffffff166108fc829081150290604051600060405180830381858888f193505050501580156107b3573d6000803e3d6000fd5b5050565b60008060006107c4610ef0565b6001858154811015156107d357fe5b906000526020600020906006020160c06040519081016040529081600082015481526020016001820160009054906101000a900473ffffffffffffffffffffffffffffffffffffffff1673ffffffffffffffffffffffffffffffffffffffff1673ffffffffffffffffffffffffffffffffffffffff168152602001600282015481526020016003820154815260200160048201548152602001600582015481525050905060008160a0015111801561088f575043816060015110155b80156108a15750600454816080015110155b93508060a0015192506003549150509193909250565b6000600180549050905060006108d68443610e8290919063ffffffff16565b905060006108ef84600454610e8290919063ffffffff16565b905060018060c0604051908101604052808681526020018973ffffffffffffffffffffffffffffffffffffffff1681526020013481526020018581526020018481526020016000815250908060018154018082558091505090600182039060005260206000209060060201600090919290919091506000820151816000015560208201518160010160006101000a81548173ffffffffffffffffffffffffffffffffffffffff021916908373ffffffffffffffffffffffffffffffffffffffff16021790555060408201518160020155606082015181600301556080820151816004015560a08201518160050155505003831415156109ed57600080fd5b8573ffffffffffffffffffffffffffffffffffffffff16837fcc591613c42f80ed72fd358d455360926057de8e9b0ad9fede4f8d7d4bc921a034858560405180848152602001838152602001828152602001935050505060405180910390a350509392505050565b60035481565b6000610a668261068a565b6003549050919050565b600181815481101515610a7f57fe5b90600052602060002090600602016000915090508060000154908060010160009054906101000a900473ffffffffffffffffffffffffffffffffffffffff16908060020154908060030154908060040154908060050154905086565b6000610aea4260035401610e9b565b905090565b6000809054906101000a900473ffffffffffffffffffffffffffffffffffffffff1673ffffffffffffffffffffffffffffffffffffffff163373ffffffffffffffffffffffffffffffffffffffff16141515610b4a57600080fd5b600073ffffffffffffffffffffffffffffffffffffffff168173ffffffffffffffffffffffffffffffffffffffff1614151515610b8657600080fd5b806000806101000a81548173ffffffffffffffffffffffffffffffffffffffff021916908373ffffffffffffffffffffffffffffffffffffffff1602179055507f22a3400c609e52ea781540daed872a0ff7b79a428f634be082c24c2faf06846381604051808273ffffffffffffffffffffffffffffffffffffffff1673ffffffffffffffffffffffffffffffffffffffff16815260200191505060405180910390a150565b6000809054906101000a900473ffffffffffffffffffffffffffffffffffffffff1681565b6000600183815481101515610c6257fe5b906000526020600020906006020190503373ffffffffffffffffffffffffffffffffffffffff168160010160009054906101000a900473ffffffffffffffffffffffffffffffffffffffff1673ffffffffffffffffffffffffffffffffffffffff16141515610cd057600080fd5b600082118015610ce4575060008160050154145b1515610cef57600080fd5b818160050181905550610d4e8160020154600260003373ffffffffffffffffffffffffffffffffffffffff1673ffffffffffffffffffffffffffffffffffffffff16815260200190815260200160002054610e8290919063ffffffff16565b600260003373ffffffffffffffffffffffffffffffffffffffff1673ffffffffffffffffffffffffffffffffffffffff168152602001908152602001600020819055508060020160009055610da282610e14565b3373ffffffffffffffffffffffffffffffffffffffff16837ffe29d6b3d4eb73a64f8ee506d7bb327cd7f6bc22d698d0a673442ecf36b20502846040518082815260200191505060405180910390a3505050565b60055481565b60026020528060005260406000206000915090505481565b60003373ffffffffffffffffffffffffffffffffffffffff168260035401019050436005541015610e5e576001430340600190048101905060016005600082825401925050819055505b610e6781610e9b565b60038190555060016004600082825401925050819055505050565b60008183019050828110151515610e9557fe5b92915050565b6000606060206040519080825280601f01601f191660200182016040528015610ed35781602001600182028038833980820191505090505b509050826020820152808051906020012060019004915050919050565b60c06040519081016040528060008152602001600073ffffffffffffffffffffffffffffffffffffffff16815260200160008152602001600081526020016000815260200160008152509056fea165627a7a72305820bbb3c50ad9929df742cce6f21a7b37ee23a2b976985e9f39adae8d22df2196590029",
  "source": "pragma solidity ^0.5.0;\n\nlibrary SafeMath {\n  function add(uint256 a, uint256 b) internal pure returns (uint256 c) {\n    c = a + b;\n    assert(c >= a);\n  }\n}\n\ncontract Committee {\n  /* EVENT */\n  event SetCommittee(address committee);\n\n  /* STORAGE */\n  address public committee;\n\n  /* FUNCTION */\n  function setCommittee(address _committee) external onlyCommittee {\n    require(_committee != address(0));\n    committee = _committee;\n\n    emit SetCommittee(_committee);\n  }\n\n  function callFor(address _to, uint256 _gas, bytes calldata _code)\n    external\n    payable\n    onlyCommittee\n    returns (bool _result)\n  {\n    (_result,) = _to.call.value(msg.value).gas(_gas)(_code);\n  }\n\n  /* MODIFIER */\n  modifier onlyCommittee {\n    require(msg.sender == committee);\n    _;\n  }\n}\n\ncontract EtherandCustomRequest is Committee {\n  using SafeMath for uint256;\n\n  /* TYPE */\n  struct Request {\n    uint256 id;\n    address from;\n    uint256 fee;\n    uint256 requiredBlockHeight;\n    uint256 requiredEntropyHeight;\n    uint256 number;\n  }\n\n  /* STATE */\n  Request[] public requests;\n  mapping (address => uint256) public fees;\n  uint256 public entropy;\n  uint256 public entropyHeight;\n  uint256 public blockHeight;\n\n  /* EVENT */\n  event RequestEntropy(\n    uint256 indexed id,\n    address indexed from,\n    uint256 fee,\n    uint256 blockCount,\n    uint256 entropyCount\n  );\n\n  event IncreaseEntropy(\n    uint256 indexed id,\n    address indexed from,\n    uint256 number\n  );\n\n  /* FUNCTION */\n  function requestEntropy(\n    address _from,\n    uint256 _blockCount,\n    uint256 _entropyCount\n  )\n    public\n    payable\n    returns (uint256 _id)\n  {\n    _id = requests.length;\n    uint256 requiredBlockHeight = block.number.add(_blockCount);\n    uint256 requiredEntropyHeight = entropyHeight.add(_entropyCount);\n\n    require(\n      _id == requests.push(\n        Request(\n          _id,\n          _from,\n          msg.value,\n          requiredBlockHeight,\n          requiredEntropyHeight,\n          0\n        )\n      ) - 1\n    );\n\n    emit RequestEntropy(\n      _id,\n      _from,\n      msg.value,\n      requiredBlockHeight,\n      requiredEntropyHeight\n    );\n  }\n\n  function respondToRequest(uint256 _id, uint256 _number) external {\n    Request storage request = requests[_id];\n    require(request.from == msg.sender);\n    require(_number > 0 && request.number == 0);\n    request.number = _number;\n    fees[msg.sender] = fees[msg.sender].add(request.fee);\n    delete request.fee;\n\n    _increaseEntropy(_number);\n\n    emit IncreaseEntropy(_id, msg.sender, _number);\n  }\n\n  function getRequestedEntropy(uint256 _id)\n    external\n    view\n    returns (\n      bool _valid,\n      uint256 _number,\n      uint256 _entropy\n    )\n  {\n    Request memory request = requests[_id];\n    _valid = request.number > 0 &&\n      request.requiredBlockHeight >= block.number &&\n      request.requiredEntropyHeight >= entropyHeight;\n    _number = request.number;\n    _entropy = entropy;\n  }\n\n  function withdraw() external {\n    uint256 _ether = fees[msg.sender];\n    delete fees[msg.sender];\n    msg.sender.transfer(_ether);\n  }\n\n  /* INTERNAL FUNCTION */\n  function _increaseEntropy(uint256 _number) internal {\n    uint256 adder = entropy + _number + uint256(msg.sender);\n    if (blockHeight < block.number) {\n      adder += uint256(blockhash(block.number - 1));\n      blockHeight += 1;\n    }\n    entropy = _hash(adder);\n    entropyHeight += 1;\n  }\n\n  function _hash(uint _number) internal pure returns (uint256) {\n    bytes memory b = new bytes(32);\n    assembly { mstore(add(b, 32), _number) }\n    return uint256(keccak256(b));\n  }\n}\n\ncontract Etherand is EtherandCustomRequest {\n  /* CONSTRUCTOR */\n  constructor() public {\n    committee = msg.sender;\n  }\n\n  /* FUNCTION */\n  function getEntropy(uint256 _number) external returns (uint256) {\n    increaseEntropy(_number);\n\n    return entropy;\n  }\n\n  function getUnsafeEntropy() external view returns (uint256) {\n    return _hash(entropy + block.timestamp);\n  }\n\n  function increaseEntropy(uint256 _number) public {\n    _increaseEntropy(_number);\n    emit IncreaseEntropy(0, msg.sender, _number);\n  }\n}\n",
  "sourcePath": "/Users/cancue/Developer/eth/etherand-contract/contracts/Etherand.sol",
  "compiler": {
    "name": "solc",
    "version": "0.5.0+commit.1d4f565a.Emscripten.clang"
  },
  "schemaVersion": "3.0.2",
  "updatedAt": "2019-03-30T09:47:56.916Z",
  "devdoc": {
    "methods": {}
  },
  "userdoc": {
    "methods": {}
  }
}